{
  "_format": "hh-sol-artifact-1",
  "contractName": "Keyboards",
  "sourceName": "contracts/Keyboards.sol",
  "abi": [
    {
      "inputs": [
        {
          "internalType": "enum Keyboards.KeyboardKind",
          "name": "_kind",
          "type": "uint8"
        },
        {
          "internalType": "bool",
          "name": "_isPBT",
          "type": "bool"
        },
        {
          "internalType": "string",
          "name": "_filter",
          "type": "string"
        }
      ],
      "name": "create",
      "outputs": [],
      "stateMutability": "nonpayable",
      "type": "function"
    },
    {
      "inputs": [
        {
          "internalType": "uint256",
          "name": "",
          "type": "uint256"
        }
      ],
      "name": "createdKeyboards",
      "outputs": [
        {
          "internalType": "enum Keyboards.KeyboardKind",
          "name": "kind",
          "type": "uint8"
        },
        {
          "internalType": "bool",
          "name": "isPBT",
          "type": "bool"
        },
        {
          "internalType": "string",
          "name": "filter",
          "type": "string"
        },
        {
          "internalType": "address",
          "name": "owner",
          "type": "address"
        }
      ],
      "stateMutability": "view",
      "type": "function"
    },
    {
      "inputs": [],
      "name": "getKeyboards",
      "outputs": [
        {
          "components": [
            {
              "internalType": "enum Keyboards.KeyboardKind",
              "name": "kind",
              "type": "uint8"
            },
            {
              "internalType": "bool",
              "name": "isPBT",
              "type": "bool"
            },
            {
              "internalType": "string",
              "name": "filter",
              "type": "string"
            },
            {
              "internalType": "address",
              "name": "owner",
              "type": "address"
            }
          ],
          "internalType": "struct Keyboards.Keyboard[]",
          "name": "",
          "type": "tuple[]"
        }
      ],
      "stateMutability": "view",
      "type": "function"
    },
    {
      "inputs": [
        {
          "internalType": "uint256",
          "name": "_index",
          "type": "uint256"
        }
      ],
      "name": "tip",
      "outputs": [],
      "stateMutability": "payable",
      "type": "function"
    }
  ],
  "bytecode": "0x608060405234801561001057600080fd5b50610e12806100206000396000f3fe60806040526004361061003f5760003560e01c806352810aa114610044578063778bc8471461006f578063d80ad431146100af578063e8b69bc3146100d8575b600080fd5b34801561005057600080fd5b506100596100f4565b6040516100669190610824565b60405180910390f35b34801561007b57600080fd5b5061009660048036038101906100919190610886565b610291565b6040516100a6949392919061092a565b60405180910390f35b3480156100bb57600080fd5b506100d660048036038101906100d19190610a2c565b610393565b005b6100f260048036038101906100ed9190610886565b610508565b005b60606000805480602002602001604051908101604052809291908181526020016000905b8282101561028857838290600052602060002090600302016040518060800160405290816000820160009054906101000a900460ff1660038111156101605761015f6105c8565b5b6003811115610172576101716105c8565b5b81526020016000820160019054906101000a900460ff161515151581526020016001820180546101a190610acf565b80601f01602080910402602001604051908101604052809291908181526020018280546101cd90610acf565b801561021a5780601f106101ef5761010080835404028352916020019161021a565b820191906000526020600020905b8154815290600101906020018083116101fd57829003601f168201915b505050505081526020016002820160009054906101000a900473ffffffffffffffffffffffffffffffffffffffff1673ffffffffffffffffffffffffffffffffffffffff1673ffffffffffffffffffffffffffffffffffffffff168152505081526020019060010190610118565b50505050905090565b600081815481106102a157600080fd5b90600052602060002090600302016000915090508060000160009054906101000a900460ff16908060000160019054906101000a900460ff16908060010180546102ea90610acf565b80601f016020809104026020016040519081016040528092919081815260200182805461031690610acf565b80156103635780601f1061033857610100808354040283529160200191610363565b820191906000526020600020905b81548152906001019060200180831161034657829003601f168201915b5050505050908060020160009054906101000a900473ffffffffffffffffffffffffffffffffffffffff16905084565b600060405180608001604052808660038111156103b3576103b26105c8565b5b8152602001851515815260200184848080601f016020809104026020016040519081016040528093929190818152602001838380828437600081840152601f19601f8201169050808301925050505050505081526020013373ffffffffffffffffffffffffffffffffffffffff168152509050600081908060018154018082558091505060019003906000526020600020906003020160009091909190915060008201518160000160006101000a81548160ff0219169083600381111561047d5761047c6105c8565b5b021790555060208201518160000160016101000a81548160ff02191690831515021790555060408201518160010190816104b79190610cdb565b5060608201518160020160006101000a81548173ffffffffffffffffffffffffffffffffffffffff021916908373ffffffffffffffffffffffffffffffffffffffff16021790555050505050505050565b600080828154811061051d5761051c610dad565b5b906000526020600020906003020160020160009054906101000a900473ffffffffffffffffffffffffffffffffffffffff1690508073ffffffffffffffffffffffffffffffffffffffff166108fc349081150290604051600060405180830381858888f19350505050158015610597573d6000803e3d6000fd5b505050565b600081519050919050565b600082825260208201905092915050565b6000819050602082019050919050565b7f4e487b7100000000000000000000000000000000000000000000000000000000600052602160045260246000fd5b60048110610608576106076105c8565b5b50565b6000819050610619826105f7565b919050565b60006106298261060b565b9050919050565b6106398161061e565b82525050565b60008115159050919050565b6106548161063f565b82525050565b600081519050919050565b600082825260208201905092915050565b60005b83811015610694578082015181840152602081019050610679565b60008484015250505050565b6000601f19601f8301169050919050565b60006106bc8261065a565b6106c68185610665565b93506106d6818560208601610676565b6106df816106a0565b840191505092915050565b600073ffffffffffffffffffffffffffffffffffffffff82169050919050565b6000610715826106ea565b9050919050565b6107258161070a565b82525050565b60006080830160008301516107436000860182610630565b506020830151610756602086018261064b565b506040830151848203604086015261076e82826106b1565b9150506060830151610783606086018261071c565b508091505092915050565b600061079a838361072b565b905092915050565b6000602082019050919050565b60006107ba8261059c565b6107c481856105a7565b9350836020820285016107d6856105b8565b8060005b8581101561081257848403895281516107f3858261078e565b94506107fe836107a2565b925060208a019950506001810190506107da565b50829750879550505050505092915050565b6000602082019050818103600083015261083e81846107af565b905092915050565b600080fd5b600080fd5b6000819050919050565b61086381610850565b811461086e57600080fd5b50565b6000813590506108808161085a565b92915050565b60006020828403121561089c5761089b610846565b5b60006108aa84828501610871565b91505092915050565b6108bc8161061e565b82525050565b6108cb8161063f565b82525050565b600082825260208201905092915050565b60006108ed8261065a565b6108f781856108d1565b9350610907818560208601610676565b610910816106a0565b840191505092915050565b6109248161070a565b82525050565b600060808201905061093f60008301876108b3565b61094c60208301866108c2565b818103604083015261095e81856108e2565b905061096d606083018461091b565b95945050505050565b6004811061098357600080fd5b50565b60008135905061099581610976565b92915050565b6109a48161063f565b81146109af57600080fd5b50565b6000813590506109c18161099b565b92915050565b600080fd5b600080fd5b600080fd5b60008083601f8401126109ec576109eb6109c7565b5b8235905067ffffffffffffffff811115610a0957610a086109cc565b5b602083019150836001820283011115610a2557610a246109d1565b5b9250929050565b60008060008060608587031215610a4657610a45610846565b5b6000610a5487828801610986565b9450506020610a65878288016109b2565b935050604085013567ffffffffffffffff811115610a8657610a8561084b565b5b610a92878288016109d6565b925092505092959194509250565b7f4e487b7100000000000000000000000000000000000000000000000000000000600052602260045260246000fd5b60006002820490506001821680610ae757607f821691505b602082108103610afa57610af9610aa0565b5b50919050565b7f4e487b7100000000000000000000000000000000000000000000000000000000600052604160045260246000fd5b60008190508160005260206000209050919050565b60006020601f8301049050919050565b600082821b905092915050565b600060088302610b917fffffffffffffffffffffffffffffffffffffffffffffffffffffffffffffffff82610b54565b610b9b8683610b54565b95508019841693508086168417925050509392505050565b6000819050919050565b6000610bd8610bd3610bce84610850565b610bb3565b610850565b9050919050565b6000819050919050565b610bf283610bbd565b610c06610bfe82610bdf565b848454610b61565b825550505050565b600090565b610c1b610c0e565b610c26818484610be9565b505050565b5b81811015610c4a57610c3f600082610c13565b600181019050610c2c565b5050565b601f821115610c8f57610c6081610b2f565b610c6984610b44565b81016020851015610c78578190505b610c8c610c8485610b44565b830182610c2b565b50505b505050565b600082821c905092915050565b6000610cb260001984600802610c94565b1980831691505092915050565b6000610ccb8383610ca1565b9150826002028217905092915050565b610ce48261065a565b67ffffffffffffffff811115610cfd57610cfc610b00565b5b610d078254610acf565b610d12828285610c4e565b600060209050601f831160018114610d455760008415610d33578287015190505b610d3d8582610cbf565b865550610da5565b601f198416610d5386610b2f565b60005b82811015610d7b57848901518255600182019150602085019450602081019050610d56565b86831015610d985784890151610d94601f891682610ca1565b8355505b6001600288020188555050505b505050505050565b7f4e487b7100000000000000000000000000000000000000000000000000000000600052603260045260246000fdfea2646970667358221220af7ffd2beb63f105f9bc8d3b3c5ac87011da30a1786baa1bac20869394bd306a64736f6c63430008110033",
  "linkReferences": {},
  "deployedLinkReferences": {}
}