{
  "_format": "hh-sol-artifact-1",
  "contractName": "Keyboards",
  "sourceName": "contracts/Keyboards.sol",
  "abi": [
    {
      "inputs": [
        {
          "internalType": "string",
          "name": "_description",
          "type": "string"
        }
      ],
      "name": "create",
      "outputs": [],
      "stateMutability": "nonpayable",
      "type": "function"
    },
    {
      "inputs": [
        {
          "internalType": "uint256",
          "name": "",
          "type": "uint256"
        }
      ],
      "name": "createdKeyboards",
      "outputs": [
        {
          "internalType": "string",
          "name": "",
          "type": "string"
        }
      ],
      "stateMutability": "view",
      "type": "function"
    },
    {
      "inputs": [],
      "name": "getKeyboards",
      "outputs": [
        {
          "internalType": "string[]",
          "name": "",
          "type": "string[]"
        }
      ],
      "stateMutability": "view",
      "type": "function"
    }
  ],
  "bytecode": "0x608060405234801561001057600080fd5b506108c2806100206000396000f3fe608060405234801561001057600080fd5b50600436106100415760003560e01c806352810aa114610046578063778bc84714610064578063b6a46b3b14610094575b600080fd5b61004e6100b0565b60405161005b91906103c9565b60405180910390f35b61007e6004803603810190610079919061042b565b610189565b60405161008b91906104a2565b60405180910390f35b6100ae60048036038101906100a99190610529565b610235565b005b60606000805480602002602001604051908101604052809291908181526020016000905b828210156101805783829060005260206000200180546100f3906105a5565b80601f016020809104026020016040519081016040528092919081815260200182805461011f906105a5565b801561016c5780601f106101415761010080835404028352916020019161016c565b820191906000526020600020905b81548152906001019060200180831161014f57829003601f168201915b5050505050815260200190600101906100d4565b50505050905090565b6000818154811061019957600080fd5b9060005260206000200160009150905080546101b4906105a5565b80601f01602080910402602001604051908101604052809291908181526020018280546101e0906105a5565b801561022d5780601f106102025761010080835404028352916020019161022d565b820191906000526020600020905b81548152906001019060200180831161021057829003601f168201915b505050505081565b60008282909180600181540180825580915050600190039060005260206000200160009091929091929091929091925091826102729291906107bc565b505050565b600081519050919050565b600082825260208201905092915050565b6000819050602082019050919050565b600081519050919050565b600082825260208201905092915050565b60005b838110156102dd5780820151818401526020810190506102c2565b60008484015250505050565b6000601f19601f8301169050919050565b6000610305826102a3565b61030f81856102ae565b935061031f8185602086016102bf565b610328816102e9565b840191505092915050565b600061033f83836102fa565b905092915050565b6000602082019050919050565b600061035f82610277565b6103698185610282565b93508360208202850161037b85610293565b8060005b858110156103b757848403895281516103988582610333565b94506103a383610347565b925060208a0199505060018101905061037f565b50829750879550505050505092915050565b600060208201905081810360008301526103e38184610354565b905092915050565b600080fd5b600080fd5b6000819050919050565b610408816103f5565b811461041357600080fd5b50565b600081359050610425816103ff565b92915050565b600060208284031215610441576104406103eb565b5b600061044f84828501610416565b91505092915050565b600082825260208201905092915050565b6000610474826102a3565b61047e8185610458565b935061048e8185602086016102bf565b610497816102e9565b840191505092915050565b600060208201905081810360008301526104bc8184610469565b905092915050565b600080fd5b600080fd5b600080fd5b60008083601f8401126104e9576104e86104c4565b5b8235905067ffffffffffffffff811115610506576105056104c9565b5b602083019150836001820283011115610522576105216104ce565b5b9250929050565b600080602083850312156105405761053f6103eb565b5b600083013567ffffffffffffffff81111561055e5761055d6103f0565b5b61056a858286016104d3565b92509250509250929050565b7f4e487b7100000000000000000000000000000000000000000000000000000000600052602260045260246000fd5b600060028204905060018216806105bd57607f821691505b6020821081036105d0576105cf610576565b5b50919050565b600082905092915050565b7f4e487b7100000000000000000000000000000000000000000000000000000000600052604160045260246000fd5b60008190508160005260206000209050919050565b60006020601f8301049050919050565b600082821b905092915050565b6000600883026106727fffffffffffffffffffffffffffffffffffffffffffffffffffffffffffffffff82610635565b61067c8683610635565b95508019841693508086168417925050509392505050565b6000819050919050565b60006106b96106b46106af846103f5565b610694565b6103f5565b9050919050565b6000819050919050565b6106d38361069e565b6106e76106df826106c0565b848454610642565b825550505050565b600090565b6106fc6106ef565b6107078184846106ca565b505050565b5b8181101561072b576107206000826106f4565b60018101905061070d565b5050565b601f8211156107705761074181610610565b61074a84610625565b81016020851015610759578190505b61076d61076585610625565b83018261070c565b50505b505050565b600082821c905092915050565b600061079360001984600802610775565b1980831691505092915050565b60006107ac8383610782565b9150826002028217905092915050565b6107c683836105d6565b67ffffffffffffffff8111156107df576107de6105e1565b5b6107e982546105a5565b6107f482828561072f565b6000601f8311600181146108235760008415610811578287013590505b61081b85826107a0565b865550610883565b601f19841661083186610610565b60005b8281101561085957848901358255600182019150602085019450602081019050610834565b868310156108765784890135610872601f891682610782565b8355505b6001600288020188555050505b5050505050505056fea26469706673582212201d26b670c3ede85246b0d57d71e694fb21f5f1020dd0856651357af9aaedf76864736f6c63430008110033",
  "linkReferences": {},
  "deployedLinkReferences": {}
}